{
  "contractName": "EncryptedStorage",
  "abi": [
    {
      "anonymous": false,
      "inputs": [
        {
          "indexed": true,
          "internalType": "address",
          "name": "user",
          "type": "address"
        },
        {
          "indexed": false,
          "internalType": "string",
          "name": "encryptedData",
          "type": "string"
        },
        {
          "indexed": false,
          "internalType": "string",
          "name": "encryptedKey",
          "type": "string"
        }
      ],
      "name": "DataStored",
      "type": "event"
    },
    {
      "inputs": [
        {
          "internalType": "string",
          "name": "encryptedData",
          "type": "string"
        },
        {
          "internalType": "string",
          "name": "encryptedKey",
          "type": "string"
        }
      ],
      "name": "storeData",
      "outputs": [],
      "stateMutability": "nonpayable",
      "type": "function"
    },
    {
      "inputs": [],
      "name": "retrieveData",
      "outputs": [
        {
          "internalType": "string",
          "name": "",
          "type": "string"
        },
        {
          "internalType": "string",
          "name": "",
          "type": "string"
        }
      ],
      "stateMutability": "view",
      "type": "function",
      "constant": true
    }
  ],
  "bytecode": "0x608060405234801561001057600080fd5b5061064d806100206000396000f3fe608060405234801561001057600080fd5b50600436106100365760003560e01c80634ece5b4c1461003b57806351e0556d14610057575b600080fd5b610055600480360381019061005091906103fa565b610076565b005b61005f61016d565b60405161006d929190610510565b60405180910390f35b83836000803373ffffffffffffffffffffffffffffffffffffffff1673ffffffffffffffffffffffffffffffffffffffff16815260200190815260200160002091906100c392919061030d565b508181600160003373ffffffffffffffffffffffffffffffffffffffff1673ffffffffffffffffffffffffffffffffffffffff168152602001908152602001600020919061011292919061030d565b503373ffffffffffffffffffffffffffffffffffffffff167fc95c7d5d3ac582f659cd004afbea77723e1315567b6557f3c059e8eb9586518f8585858560405161015f94939291906104d5565b60405180910390a250505050565b6060806000803373ffffffffffffffffffffffffffffffffffffffff1673ffffffffffffffffffffffffffffffffffffffff168152602001908152602001600020600160003373ffffffffffffffffffffffffffffffffffffffff1673ffffffffffffffffffffffffffffffffffffffff1681526020019081526020016000208180546101f9906105a5565b80601f0160208091040260200160405190810160405280929190818152602001828054610225906105a5565b80156102725780601f1061024757610100808354040283529160200191610272565b820191906000526020600020905b81548152906001019060200180831161025557829003601f168201915b50505050509150808054610285906105a5565b80601f01602080910402602001604051908101604052809291908181526020018280546102b1906105a5565b80156102fe5780601f106102d3576101008083540402835291602001916102fe565b820191906000526020600020905b8154815290600101906020018083116102e157829003601f168201915b50505050509050915091509091565b828054610319906105a5565b90600052602060002090601f01602090048101928261033b5760008555610382565b82601f1061035457803560ff1916838001178555610382565b82800160010185558215610382579182015b82811115610381578235825591602001919060010190610366565b5b50905061038f9190610393565b5090565b5b808211156103ac576000816000905550600101610394565b5090565b60008083601f8401126103c257600080fd5b8235905067ffffffffffffffff8111156103db57600080fd5b6020830191508360018202830111156103f357600080fd5b9250929050565b6000806000806040858703121561041057600080fd5b600085013567ffffffffffffffff81111561042a57600080fd5b610436878288016103b0565b9450945050602085013567ffffffffffffffff81111561045557600080fd5b610461878288016103b0565b925092505092959194509250565b600061047b8385610552565b9350610488838584610563565b61049183610606565b840190509392505050565b60006104a782610547565b6104b18185610552565b93506104c1818560208601610572565b6104ca81610606565b840191505092915050565b600060408201905081810360008301526104f081868861046f565b9050818103602083015261050581848661046f565b905095945050505050565b6000604082019050818103600083015261052a818561049c565b9050818103602083015261053e818461049c565b90509392505050565b600081519050919050565b600082825260208201905092915050565b82818337600083830152505050565b60005b83811015610590578082015181840152602081019050610575565b8381111561059f576000848401525b50505050565b600060028204905060018216806105bd57607f821691505b602082108114156105d1576105d06105d7565b5b50919050565b7f4e487b7100000000000000000000000000000000000000000000000000000000600052602260045260246000fd5b6000601f19601f830116905091905056fea2646970667358221220b7ed1751bc6746ccc4fdc2c97c33ed7de69d4760e76c047d9d51e9d200ac9f4764736f6c63430008000033",
  "immutableReferences": {},
  "source": "// SPDX-License-Identifier: MIT\r\npragma solidity ^0.8.0;\r\n\r\ncontract EncryptedStorage {\r\n    mapping(address => string) private data;\r\n    mapping(address => string) private keys;\r\n\r\n    event DataStored(address indexed user, string encryptedData, string encryptedKey);\r\n\r\n    function storeData(string calldata encryptedData, string calldata encryptedKey) external {\r\n        data[msg.sender] = encryptedData;\r\n        keys[msg.sender] = encryptedKey;\r\n        emit DataStored(msg.sender, encryptedData, encryptedKey);\r\n    }\r\n\r\n    function retrieveData() external view returns (string memory, string memory) {\r\n        return (data[msg.sender], keys[msg.sender]);\r\n    }\r\n}\r\n",
  "sourcePath": "C:\\Users\\USER\\OneDrive\\Desktop\\Srinjoy\\contracts\\EncryptedStorage.sol",
  "compiler": {
    "name": "solc",
    "version": "0.8.0+commit.c7dfd78e.Emscripten.clang"
  },
  "schemaVersion": "3.4.16",
  "updatedAt": "2024-06-26T16:23:00.062Z",
  "networkType": "ethereum",
  "devdoc": {
    "kind": "dev",
    "methods": {},
    "version": 1
  },
  "userdoc": {
    "kind": "user",
    "methods": {},
    "version": 1
  }
}